:020000040800F2
:100000000000022071020008A7140008A9140008CB
:10001000AB140008AD140008AF1400080000000085
:10002000000000000000000000000000B114000803
:10003000B314000800000000B5140008B71400084D
:100040008D0200088D0200088D0200088D02000854
:100050008D0200088D020008D91400088D020008E6
:100060008D0200088D0200088D0200088D02000834
:100070008D0200088D0200088D0200088D02000824
:100080008D0200088D0200088D0200088D02000814
:100090008D0200088D0200088D0200088D02000804
:1000A0008D0200088D0200088D0200088D020008F4
:1000B0008D0200088D0200088D0200088D020008E4
:1000C0008D0200088D0200088D0200088D020008D4
:1000D0008D0200088D0200088D0200088D020008C4
:1000E0008D0200088D0200088D0200088D020008B4
:1000F0008D0200088D0200088D0200088D020008A4
:100100008D0200088D0200088D0200088D02000893
:100110008D0200088D0200088D0200088D02000883
:100120008D0200088D0200088D0200088D02000873
:100130008D0200088D0200088D0200088D02000863
:100140008D0200088D0200088D0200088D02000853
:100150008D0200088D0200088D0200088D02000843
:100160008D0200088D0200088D0200088D02000833
:100170008D0200088D0200088D02000800000000BA
:100180008D0200088D02000807B500F089FD2E4B96
:100190002E4AA3F10C0191420FD253F8081C53F8D8
:1001A0000C4C53F8040C0A46904204D9651AAD5819
:1001B00042F8045BF8E70C33EAE7254B254AA3F144
:1001C000080191420BD253F8082C53F8041C8A42C0
:1001D00003D2002042F8040BF9E70833EEE700F001
:1001E00061FD684601A900F053FD1B4D1B4BED1A44
:1001F000AD1000241E46AC4204DA56F82420904785
:100200000134F8E7164B174DED1AAD1000241E46C9
:10021000AC4204DA56F8242090470134F8E7124D36
:10022000124C9DE8030001F059F8641BA410064627
:1002300005EB8405002C04DD55F8043D013C98478E
:10024000F8E7304600F020FD9C020008A8020008F4
:10025000B0020008B8020008B8020008B80200089E
:10026000B8020008B8020008B8020008B802000886
:1002700005480047FEE7FEE7FEE7FEE7FEE7FEE78C
:0E028000FEE7FEE77047000089010008FEE778
:10029000A81700080000002030000020A817000860
:1002A000000000100000001030000020B805002001
:0802B000000000100000001026
:1002B80010B5044600F08AFC4FF47A73B0FBF3F0F3
:1002C80000F080F84FF0FF302146002200F03CF8A3
:1002D800002010BD08B50B4B1A6842F400721A6072
:1002E8001A6842F480621A601A6842F480721A60CE
:1002F800032000F017F80F20FFF7DAFF01F0CEF81F
:10030800002008BD003C0240024B1A6801321A6006
:10031800704700BF30000020014B1868704700BFCD
:1003280030000020074AD36823F4E0631B041B0C49
:1003380043F0BF6343F4003300F0070043EA0023AF
:10034800D360704700ED00E0164BDB68C3F302236F
:1003580070B51D1DC3F10704042C28BF0424062D05
:100368004FF001058CBF033B002305FA04F405FA9E
:1003780003F6013C013E2140324001FA03F31343E6
:1003880000284FEA031305DADAB200F00F00064B33
:100398001A5470BD00F1604000F56140DBB280F88E
:1003A800003370BD00ED00E014ED00E042090123C8
:1003B80000F01F0003FA00F0014B43F822007047D9
:1003C80000E100E00138B0F1807F0AD2064B074A0D
:1003D8005860F02182F823100020072298601A60E4
:1003E80070470120704700BF10E000E000ED00E01A
:1003F8002DE9F0430F68002301229A4002EA07051D
:10040800954240F0D0804C6824F01006022E16D198
:100418004FEAD30C00EB8C0C03F00708DCF8202023
:100428004FEA88084FF00F0909FA08F922EA090982
:100438000A6902FA08F849EA0802CCF820205A00AA
:100448004FF0030CD0F800900CFA02FC6FEA0C0C89
:1004580004F003080CEA090908FA02F8013E49EA1F
:100468000808012EC0F8008010D886680CEA060833
:10047800CE68964048EA06068660466826EA050879
:10048800C4F300169E4048EA06064660C6680CEAB1
:10049800060C8E6896404CEA0602C260E20040F103
:1004A8008280444A566C46F48046566423F003061C
:1004B80006F1804606F59C3603F0030CB2684FEA55
:1004C8008C0C4FF00F0808FA0CF822EA08083A4A90
:1004D800904226D002F58062904224D002F58062D4
:1004E800904222D002F58062904220D002F58062CC
:1004F80090421ED002F5806290421CD002F58062C4
:1005080090421AD002F58062904218D002F58062BB
:10051800904216D002F58062904214BF0A22092246
:1005280010E000220EE001220CE002220AE0032281
:1005380008E0042206E0052204E0062202E0072281
:1005480000E0082202FA0CF242EA0802B2601B4EEE
:10055800D6F800C0EA4314F4803F14BF45EA0C0CF7
:1005680002EA0C0CC6F800C0766814F4003F14BF09
:1005780045EA060C02EA060C104EC6F804C0D6F886
:1005880008C014F4801F14BF45EA0C0C02EA0C0CD6
:10059800C6F808C0F668A40258BF02EA0605074A6A
:1005A80048BF3543D5600133102B7FF425AFBDE834
:1005B800F08300BF0038024000000240003C0140C8
:1005C8000AB10183704741837047436959404161CB
:1005D8007047000008B5044B5969084202D05861B9
:1005E80000F01EFF08BD00BF003C0140F8B50368DD
:1005F8000446D80703D4236899074DD48FE0834B6A
:100608009A6802F00C02042A07D09A6802F00C02D9
:10061800082A0BD15B685A0208D57C4B1B689B03E0
:10062800E9D56368012BE6D00120F8BD784D002399
:100638002B70FFF771FE0646744B1B689F0308D5A5
:10064800FFF76AFE41F28833801B9842F4D90320F1
:10065800F8BD23792B706368012B0ED1FFF75CFE80
:1006680005466A4B1B689E03C5D4FFF755FE41F249
:100678008833401B9842F4D9E9E7FFF74DFE054659
:10068800624B1B689803B6D5FFF746FE41F28833E4
:10069800401B9842F4D9DAE75C4B9A6812F00C0FC9
:1006A80007D09A6802F00C02082A0AD15B6859023E
:1006B80007D4564B1A68920715D5E268012AB3D1B8
:1006C80011E0E268534BE2B101221A60FFF724FE01
:1006D80005464E4B1A68970705D4FFF71DFE401BC9
:1006E8006428F6D9B3E71968F82090FAA0F0B0FAB0
:1006F80080F02269C0B2824021F0F8010A431A60F2
:100708000DE01A60FFF708FE0546404B1B689E0780
:1007180005D5FFF701FE401B6428F6D997E7236843
:100728001D0703D42368580748D51FE062693A4B70
:1007380072B101221A60FFF7EFFD0546334B5B6F7C
:100748009907EFD4FFF7E8FD401B6428F6D97EE748
:100758001A60FFF7E1FD05462C4B5B6F9A07E1D560
:10076800FFF7DAFD401B6428F6D970E7274B1A6CAF
:1007780042F080521A64A3F5E4331A6842F4807296
:100788001A60FFF7C9FD0546244B1B68DB0518D521
:10079800234D00232B70FFF7BFFD06461B4B1B6F35
:1007A8009F0714D4237A2B70A368012B1FD1FFF75E
:1007B800B3FD0546154B1B6F9E0710D5A3698BBB70
:1007C80075E0FFF7A9FD401B6428DDD93FE7FFF777
:1007D800A3FD41F28833801B9842DFD937E7FFF742
:1007E8009BFD41F28833401B9842E3D92FE7FFF77E
:1007F80093FD0546054B1B6F9807DFD5FFF78CFD6A
:1008080041F28833401B9842F4D920E7003802406F
:100818000238024000004742800E47420070004004
:10082800703802402F4A926802F00C02082A3FF4FE
:10083800FBAE2D4D022B4FF000032B6045D1FFF787
:100848006BFD0646274B1A68910132D447F6C072F1
:1008580092FAA2F2B2FA82F24FF4403797FAA7F767
:10086800B7FA87F74FF0706696FAA6F6B6FA86F6E4
:10087800206AE1690143D0B2626A41F000518240C6
:100888001143A26AE46A5208013AFFB202FA07F772
:1008980041EA0702F1B28C4022435A6001232B60DF
:1008A800FFF73AFD04460F4B1B689A0107D5002055
:1008B800F8BDFFF731FD801B6428C3D9C7E6FFF7F1
:1008C8002BFD001B6428EED9C1E6FFF725FD044681
:1008D800044B1B689B01EAD5FFF71EFD001B64282B
:1008E800F6D9B4E600380240600047426E4B1A68F9
:1008F80002F00F02914270B504460D4668D9CAB29B
:100908001A701B6803F00F038B4201D0012070BDE1
:1009180003689E0706D5654AA168906820F0F00034
:1009280001439160DD070BD42368580740F1AD807F
:100938005E4AE168906820F4E05001439160A4E0C9
:1009480062685A4B012A196802D111F4003F06E087
:10095800022A02D111F0007F01E011F0020FD5D078
:10096800996821F003010A439A60FFF7D5FC636890
:10097800012B05460ED14D4B9B6803F00C03042B4D
:10098800D2D0FFF7C9FC41F28833401B9842F2D914
:10099800032070BD022B0CD0444B9B6813F00C0F46
:1009A8000ED1C1E7FFF7B8FC41F28833401B9842EB
:1009B800EED83E4B9B6803F00C03082BF2D1B3E74B
:1009C800FFF7AAFC41F28833401B9842E4D9DFE7DD
:1009D8000368990706D5354AA168906820F0F000A9
:1009E80001439160DA0708D42F4BEAB21A701B68EA
:1009F80003F00F03AB4289D196E762682B4B012ABB
:100A0800196802D111F4003F06E0022A02D111F060
:100A1800007F01E011F0020F3FF478AF996821F0F0
:100A280003010A439A60FFF777FC6368012B0646C7
:100A38000DD11E4B9B6803F00C03042BD4D0FFF799
:100A48006BFC41F28833801B9842F2D9A0E7022B55
:100A58000CD0164B9B6813F00C0F0ED1C4E7FFF7B0
:100A68005BFC41F28833801B984291D80F4B9B68FE
:100A780003F00C03082BF2D1B6E7FFF74DFC41F267
:100A88008833801B9842E4D982E71B0707D5074BB8
:100A980021699A6822F4604242EAC1029A600F20F2
:100AA800FFF706FC002070BD003C02400038024001
:100AB80070B51B4C86B00D461646236BA8B943F09B
:100AC800010323634FF4807301930223029303907D
:100AD8000323059001A913480493FFF789FCA36831
:100AE80023F0EC631E43354316E043F0040323630D
:100AF8004FF40073019302230293032304930A48DB
:100B0800002301A903930593FFF772FCA36845EA44
:100B1800C60523F078431D43A56006B070BD00BF2D
:100B2800003802400000024000080240244B9A6846
:100B380002F00C02042A40D0082A01D0214870474C
:100B48005968586801F03F014FF4800292FAA2F206
:100B5800B2FA82F200F48000D2B230FA02F247F61A
:100B6800C07258680BD092FAA2F3B3FA83F3DBB2DF
:100B78000240DA40144BB3FBF1F353430CE092FA12
:100B8800A2F2B2FA82F247F6C07303400D48D2B21D
:100B9800D340B0FBF1F14B43094A50684FF440325F
:100BA80092FAA2F2B2FA82F2D2B200F44030D04005
:100BB80001304000B3FBF0F070470348704700BFB6
:100BC800003802400024F40000127A0008B5FFF74C
:100BD800ADFF094B9A68F02393FAA3F3B3FA83F3B2
:100BE80002F0F002DBB222FA03F3044AD35CD840E5
:100BF800034B186008BD00BF00380240DE1400082F
:100C080018000020704710B50446002833D090F82B
:100C180051300BB9FFF7F6FF6168A0680843E16837
:100C28000843216902230843616984F85130236825
:100C38000843E1691A680843216A22F040021A60F1
:100C48000843A269A16A014302F4007001431960D4
:100C5800120C616A02F004021143E26A59601A61D7
:100C6800DA6922F40062DA610020012384F8520074
:100C780084F8513010BD012010BD90F85100704724
:100C880008B500F00DF8000001230360014B0B606C
:100C9800704700BF0000002000F012B800F030B824
:100CA800BFF34F8F044A054BD16801F4E0610B4351
:100CB800D360BFF34F8FFEE700ED00E00400FA05B4
:100CC8000C4B1A68002142F001021A6099601A68F8
:100CD80022F0847222F480321A60074A5A601A6835
:100CE80022F480221A60D960044B4FF000629A60A7
:100CF800704700BF003802401030002400ED00E0CB
:100D0800174A184B916801F00C01042903D00829EF
:100D180003D0154A18E0154A16E05068516810F4D7
:100D2800800F506814BF114A0F4A01F03F01B2FB0F
:100D3800F1F20B494968C1F30141C0F38810013150
:100D480042434900B2FBF1F21A60054A0849926829
:100D5800C2F30312895C1A68CA401A60704700BF60
:100D680000380240180000200024F40000127A0025
:100D780008000020184B1A6B42F002022DE9F041DE
:100D88001A631A6B154C164E42F008021A630025B6
:100D98000127F0234FF002083046214684E88801F5
:100DA800E560FFF725FBFF2321460E48E56084E850
:100DB8008801FFF71DFB30463A468021FFF700FC0B
:100DC80030462A461021FFF7FBFB30462A462021F1
:100DD800BDE8F041FFF7F4BB003802408C0000206A
:100DE80000040240000C024038B5174C0546FF21AC
:100DF80020460022FFF7E4FB20462946A4F50064BC
:100E08000122FFF7DDFB204610210022FFF7D8FB67
:100E1800204640210022FFF7D3FB20462021002254
:100E2800FFF7CEFB204620210122FFF7C9FB204611
:100E380040210122FFF7C4FB204610210122BDE812
:100E48003840FFF7BDBB00BF000C0240072910B5B2
:100E5800044611D8A12811D841F0B0000334FFF797
:100E6800C3FF201140F01000FFF7BEFF04F00F0091
:100E7800FFF7BAFF002010BD012010BD022010BDF1
:100E880038B5124C0546FF2120460022FFF798FB93
:100E980020462946A4F500640122FFF791FB20466D
:100EA80040210022FFF78CFB204620210022FFF77B
:100EB80087FB204620210122FFF782FB20464021A4
:100EC8000122BDE83840FFF77BBB00BF000C0240A1
:100ED80038B5002464F04F00C0B2FFF785FF10203A
:100EE800FFF782FF0320FFF77FFFA2250020013DC7
:100EF800FFF7C6FF15F0FF05F8D10134092CE9D139
:100F080028462946BDE83840FFF7A0BF0022002345
:100F1800064911440020C8540133A22BF8D1A2324B
:100F280040F2B2539A42F2D1704700BFA0000020AD
:100F380008B5FFF71FFFAB20FFF756FFA320FFF709
:100F480053FFA620FFF750FFC820FFF74DFF4020B2
:100F5800FFF74AFF2B20FFF747FF2620FFF744FF44
:100F68008120FFF741FF1020FFF73EFFAF20FFF77A
:100F78003BFFFFF7ADFFBDE80840FFF7C7BF000024
:100F880070B5002464F04F00C0B2FFF72DFF1020A9
:100F9800FFF72AFF0320FFF727FF074BA22606FBD0
:100FA80004360025705D0135FFF76AFFA22DF9D1DF
:100FB8000134082CE6D170BDA0000020F0B512F86D
:100FC800013BDBB1002312F8016CDFF838C00C4C90
:100FD800A22506EB8606C7181E444D4355FA87F727
:100FE80001331CF80660E655052BECD1431D55FA74
:100FF80083F506300023C0B26355E0E7F0BD00BFBB
:10100800A0000020EE1400087FB5374C06460D46B8
:101018002068616801AB03C3A17A99703349B2FBB8
:10102800F1F303F1300001FB1321314B8DF804007B
:10103800B1FBF3F130318DF80510B2FBF3F103FB8E
:1010480011212C4BB1FBF3F130318DF80610B2FBB6
:10105800F3F103FB1121284BB1FBF3F130318DF88B
:101068000710B2FBF3F103FB1121244BB1FBF3F1A1
:1010780030318DF80810B2FBF3F103FB112142F275
:101088001073B1FBF3F130318DF80910B2FBF3F1B5
:1010980003FB11214FF47A73B1FBF3F130318DF872
:1010A8000A10B2FBF3F103FB11216423B1FBF3F146
:1010B80030318DF80B10B2FBF3F103FB11210A2339
:1010C800B1FBF3F130318DF80C10B2FBF3F103FBF7
:1010D800112330333046294601AA8DF80D30FFF729
:1010E8006DFF04B070BD00BF6E17000800CA9A3BC0
:1010F80000E1F5058096980040420F00A0860100A7
:1011080010B51A4C86B02046FFF7B7FD00282BD142
:10111800174B23601823E3610723E3624FF400733E
:10112800A3614FF482736360124BA0606061206119
:10113800A062E060206260625A6C0F4842F48052FC
:101148005A641A6B42F001021A63E02301930223E6
:10115800029303930123049301A905230593FFF741
:1011680047F92046FFF74FFD06B010BD38000020B4
:1011780000300140003802400000024070B5134BB7
:1011880086B0044608B1012804D11A6B42F008025F
:101198001A6303E01A6B42F008021A630C4B0D4EF7
:1011A80033F8145056F82400019501230293039351
:1011B80001A902230493FFF71BF956F824002946D6
:1011C8000022FFF7FDF906B070BD00BF00380240ED
:1011D8007A1700081C000020044A034652F8200031
:1011E800034A32F813100122FFF7EAB91C00002065
:1011F8007A170008044A034652F82000034A32F8D6
:1012080013100022FFF7DCB91C0000207A17000831
:10121800044A034652F82000034A32F81310FFF735
:10122800D4B900BF1C0000207A17000810B5164B6F
:101238001A6B42F0010286B01A6361B90123019367
:1012480002230493114B0291039153F8200001A942
:10125800FFF7CEF816E0012914D1022304930C4BB2
:1012680002930A4B019153F82000002401A903942A
:10127800FFF7BEF806200F212246FFF765F8062083
:10128800FFF794F806B010BD003802402C0000208B
:101298000000111070B50D4B0D4E1A6B86B042F060
:1012A80010021A63012400230825304601A903937C
:1012B800019502940494FFF79BF83046294622468C
:1012C800FFF77EF9FFF71CFF06B070BD003802403B
:1012D8000010024070B592B0FEF7FCFF002308939F
:1012E80009930B934FF480030D9304230E9360230B
:1012F80001260F930225082306A806960796109341
:101308000C95FFF773F918B12846FFF765FFFEE75C
:10131800039004900590052101A801960295FFF716
:10132800E5FA044618B12846FFF756FFFEE73046AF
:1013380021462246FFF7BCFB224621462046FFF7FE
:10134800B7FB2046FFF71AFF3046FFF717FF28467E
:10135800FFF714FF0320FFF711FF20462146FFF790
:1013680065FFFFF7E5FDFFF795FF264B26481A6B4B
:1013780042F001021A6306A9244B079308940696C3
:10138800FFF736F8294622460620FEF7DDFF06203D
:10139800FFF70CF82046FFF71FFF2046FFF72AFF4C
:1013A8003046FFF719FF3046FFF724FF2846FFF7BE
:1013B80013FF2846FFF71EFF0320FFF70DFF03204A
:1013C800FFF718FF2046FFF707FF2046FFF712FF39
:1013D800204621460E4AFFF7F1FD204607210D4A17
:1013E800FFF7ECFD6C2007210B4AFFF7E7FDFFF73D
:1013F80087FC0A4B302007211A68FFF705FEFFF724
:10140800BFFDFEE700380240000002400000211046
:10141800821700089A170008A21700081800002071
:1014280030B5012887B0044632D11A4B9B68019029
:1014380003F00C03042B11D1022501A821460295C3
:10144800FFF754FA18B12846FFF7C6FEFEE7032057
:10145800FFF7D0FE2046FFF7BFFE0FE002902146BF
:1014680001A8FFF743FA18B10220FFF7B5FEFEE71F
:101478000320FFF7B1FE2046FFF7BCFEFFF740FC54
:10148800054B302007211A68FFF7BEFDFFF778FDEE
:1014980007B030BD00380240180000207047704780
:1014A800FEE7FEE7FEE7FEE770477047704708B5BE
:1014B800FEF72AFFFEF730FF4FF47A73B0FBF3F222
:1014C80002FB130018B9BDE80840FFF7A1BE08BD2C
:1014D8000120FFF77FB800000000010203040102A9
:1014E80003040607080900000000000000000000CF
:1014F80000000000000000000000000000000000E4
:1015080000000000000000000000000000000000D3
:1015180000000000000000000000000000000000C3
:1015280000000000000000000000000000000000B3
:1015380000000000000000000000000000000000A3
:101548000000000000000000000000000000000093
:101558000000000000000000000000000000000083
:101568000000000000000000000000000000000073
:101578000000000000000000000000000000000063
:10158800000000000000000000000000065F0600E8
:101598000703000703247E247E2400242B6A126399
:1015A8001308646336495620500000070300000002
:1015B8003E41000000413E00083E1C3E0808083E2F
:1015C80008080000E06000080808080800006060DB
:1015D8000020100804023E615D433E0004027F00C3
:1015E800625149494622414949361814127F102749
:1015F800454545393E49494932036111090736498C
:10160800494936264949493E00006C6C0000006C87
:10161800EC0000081422412424242424004122142C
:10162800080201B109063E415D551E7C1211127C6B
:101638007F494949363E414141227F4141413E7FF0
:10164800494941637F090901033E4149493A7F08F5
:1016580008087F00417F4100234141413F7F081432
:1016680022417F404040407F020C027F7F020408F5
:101678007F3E4141413E7F090909063E416141BE25
:101688007F09090976264949493203017F01033F49
:101698004040403F07384038077F2018207F6314B8
:1016A80008146303047804037349454563007F41C4
:1016B800410002040810200041417F000402010299
:1016C8000440404040400000020300205454547835
:1016D8007F484444380038444444384444487F38B8
:1016E8005454540800087E090918A4A4A47C007F57
:1016F80004047800007D4000004080847D007F1055
:10170800284400007F40007C04180478007C04040E
:10171800783844444438FC4444443838444444FC0D
:101728004478444408085454542000043E44240097
:101738003C40207C1C2040201C3C6030603C006CFD
:1017480010106C009CA0603C006454544C00083E8F
:10175800414100007F00000041413E0800000000B8
:101768000000080408043030303030303030303079
:1017780000000010002000400080696E745F7374E0
:101788006172745F7631202D20434D534953342EB6
:0E1798003200535953434C4B3A004D487A00EF
:1017A80034000020000000000000000000000000DD
:1017B80001020304060708090024F400000C024093
:1017C800000C0240000C0240000C024000000240E5
:040000050800018965
:00000001FF
