:020000040800F2
:10000000000002205D020008B5140008B7140008C3
:10001000B9140008BB140008BD140008000000005B
:10002000000000000000000000000000BF140008F5
:10003000C114000800000000C3140008C514000823
:1000400079020008790200087902000879020008A4
:100050007902000879020008E71400087902000814
:100060007902000879020008790200087902000884
:100070007902000879020008790200087902000874
:100080007902000879020008790200087902000864
:100090007902000879020008790200087902000854
:1000A0007902000879020008790200087902000844
:1000B0007902000879020008790200087902000834
:1000C0007902000879020008790200087902000824
:1000D0007902000879020008790200087902000814
:1000E0007902000879020008790200087902000804
:1000F00079020008790200087902000879020008F4
:1001000079020008790200087902000879020008E3
:1001100079020008790200087902000879020008D3
:1001200079020008790200087902000879020008C3
:1001300079020008790200087902000879020008B3
:1001400079020008790200087902000879020008A3
:100150007902000879020008790200087902000893
:100160007902000879020008790200087902000883
:1001700079020008790200087902000800000000F6
:10018000790200087902000807B500F0CFFE294B7C
:10019000294A93420BD293E806000C3353F8040C1F
:1001A0009042F5D951F8044B42F8044BF8E7234B41
:1001B000234A934209D253F8082B53F8041C8A426D
:1001C000F6D2002042F8040BF9E700F0B1FE6846D1
:1001D00001A900F0A3FE1B4C1B4BE41AA410002540
:1001E0001E46A54204DA56F8253098470135F8E74F
:1001F000164B174CE41AA41000251E46A54204DA3B
:1002000056F8253098470135F8E79DE8030001F0DE
:1002100045F8104C104BE41A0646A4101D46002C5D
:1002200004DD013C55F824309847F8E7304600F0EB
:1002300071FE00BF7C0200089402000894020008CE
:10024000A4020008A4020008A4020008A4020008F6
:10025000A4020008A4020008A40200080548004700
:10026000FEE7FEE7FEE7FEE7FEE7FEE7FEE7FEE766
:0A0270007047000089010008FEE756
:10027C00A8170008000000202C000020A817000878
:10028C0000000010000000102C0000209C05002035
:08029C0000000010000000103A
:1002A40010B5044600F08EFC4FF47A73B0FBF3F003
:1002B40000F07EF84FF0FF302146002200F03CF8B9
:1002C400002010BD08B50B4B1A6842F400721A6086
:1002D4001A6842F480621A601A6842F480721A60E2
:1002E400032000F017F80F20FFF7DAFF01F0AEF853
:1002F400002008BD003C0240024A13680133136029
:10030400704700BF2C000020014B1868704700BFE5
:100314002C000020074AD36823F4E0631B041B0C61
:1003240043F0BF6343F4003300F0070043EA0023C3
:10033400D360704700ED00E0154BDB68C3F3022384
:1003440070B5C3F107051C1D042D28BF0425062C18
:100354008CBF033B0023012404FA03F6AC40013CA8
:10036400013E214099403240002842EA01024FEA0E
:100374000212AFBF00F1604000F00F00054BD2B293
:10038400A5BF00F56140D2B21A5480F8002370BDB5
:1003940000ED00E014ED00E04109012300F01F002E
:1003A400024A834042F82130704700BF00E100E078
:1003B4000138B0F1807F3FBF064B074A5860F021F7
:1003C4003FBF82F8231000200722986034BF1A60D0
:1003D4000120704710E000E000ED00E02DE9F0415D
:1003E4000F6800220123934003EA07059D4240F071
:1003F400CC804C6824F0100CBCF1020F14D14FEAED
:10040400D20E00EB8E0E02F00706DEF82030B600A6
:100414004FF00F0808FA06F823EA08080B69B340FE
:1004240048EA0303CEF820304FEA420E032306685D
:1004340003FA0EF3DB4303EA060804F0030606FAA4
:100444000EF60CF1FF3C48EA0606BCF1010F06600B
:1004540011D8866803EA060CCE6806FA0EF64CEA52
:1004640006068660466826EA050CC4F30016964024
:100474004CEA06064660C66803EA060C8B6803FA73
:100484000EF64CEA0603C360E3007ED5424E736C5D
:1004940043F48043736422F0030606F1804606F5B4
:1004A4009C3602F0030CD6F808E04FEA8C0C0F23BC
:1004B40003FA0CF32EEA030E384B984226D003F5C8
:1004C4008063984224D003F58063984222D003F5D8
:1004D4008063984220D003F5806398421ED003F5D0
:1004E400806398421CD003F5806398421AD003F5C8
:1004F4008063984218D003F58063984216D003F5C0
:10050400806398420CBF09230A2310E000230EE005
:1005140001230CE002230AE0032308E0042306E09D
:10052400052304E0062302E0072300E0082303FA7E
:100534000CF343EA0E03DFF868E0B360DEF8003042
:10054400EE4314F4803F14BF2B433340CEF8003005
:10055400DEF80430DFF848E014F4003F14BF2B4306
:100564003340CEF80430DEF8083014F4801F14BF92
:100574002B433340CEF80830DEF80C30A40254BFCD
:1005840006EA03051D43064BDD600132102A7FF4A1
:1005940029AFBDE8F08100BF0038024000000240EE
:1005A400003C01400AB101837047418370474369AD
:1005B400594041617047000008B5044B596908422D
:1005C40002D0586100F008FF08BD00BF003C0140A4
:1005D400F8B503680446D80703D4236899074DD4B3
:1005E4009EE08B4B9A6802F00C02042A07D09A68AA
:1005F40002F00C02082A0BD15B685A0208D5844B1E
:100604001B689B03E9D56368012BE6D00120F8BD84
:10061400804D00232B70FFF777FE06467C4B1B684A
:100624009F0308D5FFF770FE41F28833801B984280
:10063400F4D90320F8BD23792B706368012B0ED104
:10064400FFF762FE0546724B1B689803C5D4FFF79B
:100654005BFE41F28833401B9842F4D9E9E7FFF787
:1006640053FE05466A4B1B689903B6D5FFF74CFE4B
:1006740041F28833401B9842F4D9DAE7644B9A6814
:1006840012F00C0F07D09A6802F00C02082A18D155
:100694005B685A0215D45E4A13689B0702D5E36867
:1006A400012BB3D11168F82393FAA3F3B3FA83F3BC
:1006B4002069DBB2984021F0F80140EA010313609D
:1006C4002EE0E268544BEAB101221A60FFF71CFEE7
:1006D40005464F490B689F0705D4FFF715FE401BDD
:1006E4006428F6D9A5E70A68F82393FAA3F3B3FAC2
:1006F40083F32069DBB2984022F0F80240EA020357
:100704000B600DE01A60FFF7FFFD0546404B1B68C8
:100714009E0705D5FFF7F8FD401B6428F6D988E746
:1007240023681D0703D42368580748D51FE062696E
:100734003A4B72B101221A60FFF7E6FD0546344BCD
:100744005B6F9907EFD4FFF7DFFD401B6428F6D9F0
:100754006FE71A60FFF7D8FD05462D4B5B6F9A07CC
:10076400E1D5FFF7D1FD401B6428F6D961E7284A9B
:10077400136C43F080531364A2F5E432136843F41A
:1007840080731360FFF7C0FD0546254B1B68DB052E
:1007940018D5244D00232B70FFF7B6FD06461C4BDD
:1007A4001B6F9F0714D4237A2B70A368012B1FD1CE
:1007B400FFF7AAFD0546164B1B6F9E0710D5A269CD
:1007C40092BB74E0FFF7A0FD401B6428DDD930E73D
:1007D400FFF79AFD41F28833801B9842DFD928E75E
:1007E400FFF792FD41F28833401B9842E3D920E79A
:1007F400FFF78AFD0546064B1B6F9807DFD5FFF709
:1008040083FD41F28833401B9842F4D911E700BFBD
:10081400003802400238024000004742800E47423E
:1008240000700040703802402E4B9B6803F00C03AC
:10083400082B3FF4EBAE2C4D0023022A2B6044D14D
:10084400FFF762FD0746274E3368990131D447F616
:10085400C07090FAA0F0B0FA80F04FF4403191FAF1
:10086400A1F1B1FA81F14FF0706292FAA2F2B2FAF8
:1008740082F2276AE3693B4343F00057636AC0B2DC
:10088400834047EA0300A36A5B08C9B2013B8B407B
:10089400D1B2E26A03438A401343736001232B609D
:1008A400FFF732FD04460F4B1B689A0107D5002061
:1008B400F8BDFFF729FDC01B6428C4D9B9E6FFF7CA
:1008C40023FD001B6428EED9B3E6FFF71DFD0446A3
:1008D400044B1B689B01EAD5FFF716FD001B642837
:1008E400F6D9A6E600380240600047426F4B1A680A
:1008F40002F00F02914270B504460D4668D9CAB29F
:100904001A701B6803F00F038B4201D0012070BDE5
:1009140001688B0741BF6648836823F0F002A3682F
:1009240044BF13438360CE070BD421684D0740F1C5
:10093400AC805F48836823F4E052E3681343836028
:10094400A3E062685A4B012A196802D111F4003FEE
:1009540006E0022A02D111F0007F01E011F0020F3B
:10096400D4D0996821F003010A439A60FFF7CCFCC4
:100974006368012B05460ED14D4B9B6803F00C03B5
:10098400042BD2D0FFF7C0FC41F28833401B9842BD
:10099400F2D9032070BD022B14D1454B9B6803F0A0
:1009A4000C03082BC1D0FFF7AFFC41F28833401B86
:1009B4009842F2D9EDE7FFF7A7FC41F28833401BD8
:1009C4009842E6D83A4B9B6813F00C0FF3D1ACE78E
:1009D4000168880741BF3648836823F0F002A368A2
:1009E40044BF13438360CA0708D4304BEAB21A7079
:1009F4001B6803F00F03AB4288D196E762682C4B67
:100A0400012A196802D111F4003F06E0022A02D13A
:100A140011F0007F01E011F0020F3FF477AF996805
:100A240021F003010A439A60FFF76EFC6368012B0F
:100A340006460DD11E4B9B6803F00C03042BD4D047
:100A4400FFF762FC41F28833801B9842F2D9A0E799
:100A5400022B14D1164B9B6803F00C03082BC4D053
:100A6400FFF752FC41F28833801B9842F2D990E799
:100A7400FFF74AFC41F28833801B984289D80C4B1B
:100A84009B6813F00C0FF3D1AFE70B0741BF084A83
:100A94002169936823F4604344BF43EAC10393602C
:100AA4000F20FFF7FDFB002070BD00BF003C02409B
:100AB4000038024070B51B4C86B00D461646236BB9
:100AC400A8B943F0010323634FF480730193022315
:100AD400029303900323059001A913480493FFF79D
:100AE4007DFCA16821F0EC613143294316E043F019
:100AF400040323634FF4007301930223029303233B
:100B0400049301A90023094803930593FFF766FCA6
:100B1400A36845EAC60123F078431943A16006B0EF
:100B240070BD00BF003802400000024000080240CF
:100B340030B5214DAB6803F00C03042B38D0082BDF
:100B440038D16A686B6802F03F044FF4800191FA6F
:100B5400A1F1B1FA81F103F48003C9B2CB4047F6A5
:100B6400C0716B6891FAA1F1B1FA81F147F6C070D6
:100B740004BF124AB2FBF4F2C9B200EA030020FA3D
:100B840001F01CBF0E49B1FBF4F202FB00F30A4A68
:100B940050684FF4403292FAA2F2B2FA82F2D2B220
:100BA40000F44030D04001304000B3FBF0F030BDE1
:100BB400034830BD014830BD003802400024F40031
:100BC40000127A0008B5FFF7B3FF094B9A68F023C7
:100BD40093FAA3F3B3FA83F302F0F002DBB222FA3E
:100BE40003F3044AD35CD840034B186008BD00BF2C
:100BF40000380240EC1400081800002008B5FFF784
:100C0400E1FF084B9A684FF4E05393FAA3F3B3FA65
:100C140083F302F4E052DBB222FA03F3024AD35C18
:100C2400D84008BD00380240EC14000808B5FFF7AE
:100C3400C9FF084B9A684FF4604393FAA3F3B3FADD
:100C440083F302F46042DBB222FA03F3024AD35C78
:100C5400D84008BD00380240EC1400082DE9F843E0
:100C640006683369054623F44052C3682969C0699C
:100C74001343AA683361F36811436A6923F4164382
:100C84000A43024323F00C031343F360736923F410
:100C94004072AB69B0F5004F43EA020373613F4B06
:100CA40036D19E4203D003F580639E4216D1FFF7EE
:100CB400BDFF6F68192460437F00B0FBF7F7FFF7AF
:100CC400B5FF6A684FF064086043B7FBF8F7520059
:100CD4003F01B0FBF2F9FFF7A9FF15E0FFF78EFF24
:100CE4006F68192460437F00B0FBF7F7FFF786FFB6
:100CF4006A684FF064086043B7FBF8F752003F019D
:100D0400B0FBF2F9FFF77AFF44436868400034E02F
:100D14009E4202D0224B9E4216D1FFF787FF6F6896
:100D240019246043BF00B0FBF7F7FFF77FFF6A6841
:100D34004FF064086043B7FBF8F792003F01B0FB43
:100D4400F2F9FFF773FF15E0FFF758FF6F681924F6
:100D54006043BF00B0FBF7F7FFF750FF6A684FF03E
:100D640064086043B7FBF8F792003F01B0FBF2F967
:100D7400FFF744FF444368688000B4FBF0F0B0FB25
:100D8400F8F008FB109212013232B2FBF8F303F0D0
:100D94000F033B43B360BDE8F88300BF001001407C
:100DA40000140140F8B504460E461546FFF7ACFAA8
:100DB4000746226813683340B34221D06B1CF9D034
:100DC400C5B92368DA6822F08002DA60DA6822F0B2
:100DD4002002DA60DA6822F48072DA605A6922F05A
:100DE40001025A61012384F83930002384F8383031
:100DF4000320F8BDFFF788FAC01BA842D9D9E0E761
:100E04000020F8BD10B5044618B390F839300BB97A
:100E140000F01EFB2268022384F83930D36823F4DF
:100E24000053D3602046FFF719FF23681A6922F4A0
:100E340090421A615A6922F02A025A61DA6842F42D
:100E44000052DA600020012384F83A0084F8393033
:100E540010BD012010BD70B50D4690F83910C9B20F
:100E6400012904461E4601D022294FD1002D4BD022
:100E7400002A49D094F83830012B47D0012384F854
:100E84003830002384F83A3094F83930A284222B85
:100E94000CBF3223122384F83930E284E28C02B38B
:100EA400A368013AB3F5805FE28420464FF08001E5
:100EB40032460DD1FFF776FF08B1032070BD2B88B1
:100EC4002268C3F308035360236943B90235E5E795
:100ED400FFF768FF0028F0D123682A785A600135AB
:100EE400DCE7204640213246FFF75CFF0028E4D1CE
:100EF40094F83930322B0CBF2223012384F8393083
:100F0400002384F8383070BD012070BD022070BD0C
:100F140008B500F00DF8000001230360014B0B60DD
:100F2400704700BF0000002000F012B800F030B895
:100F3400BFF34F8F0449054BCA6802F4E0621343C0
:100F4400CB60BFF34F8FFEE700ED00E00400FA052D
:100F54000C4B1A68002142F001021A6099601A6869
:100F640022F0847222F480321A60074A5A601A68A6
:100F740022F480221A60D960044B4FF000629A6018
:100F8400704700BF003802401030002400ED00E03C
:100F9400174A1849936803F00C03042B03D0082B59
:100FA40003D0154B18E0154B16E05068536810F445
:100FB400800F03F03F03506814BF104A0E4AB2FB7F
:100FC400F3F30B4A5268C2F30142C0F388100132B2
:100FD40043435200B3FBF2F30B60054B084A9B6892
:100FE400C3F30313D25C0B68D3400B60704700BF9C
:100FF40000380240180000200024F40000127A0097
:101004000800002038B5174C05464FF47F412046B0
:101014000022FFF7C7FA20462902A4F50064012242
:10102400FFF7C0FA204610210022FFF7BBFA204642
:1010340040210022FFF7B6FA204620210022FFF7C4
:10104400B1FA204620210122FFF7ACFA20464021C4
:101054000122FFF7A7FA204610210122BDE83840FB
:10106400FFF7A0BA000C024038B5124C05464FF405
:101074007F4120460022FFF795FA20462902A4F575
:1010840000640122FFF78EFA204640210022FFF778
:1010940089FA204620210022FFF784FA20462021E5
:1010A4000122FFF77FFA204640210122BDE83840A3
:1010B400FFF778BA000C024070B5002464F04F00CA
:1010C400C0B2FFF79FFF1020FFF79CFF084E0320DC
:1010D400FFF798FFA22303FB04660025705D01352A
:1010E400FFF7C2FFA22DF9D10134082CE6D170BD5F
:1010F40048000020F0B5013A12F8013FD3B10024B2
:101104001378DFF838E00C4FA22503EB83030619AC
:1011140023444D4355FA86F601341EF80330BB557B
:10112400052CEDD1431D55FA83F506300023C0B2DA
:101134007B55E1E7F0BD00BF48000020FC14000827
:101144007FB5374E05460C463068716801AB03C362
:10115400B17A99703349B2FBF1F303F1300001FB2A
:1011640013233149B3FBF1F330338DF80530B2FB6F
:10117400F1F301FB13232D49B3FBF1F330338DF865
:1011840004008DF806302A48B2FBF1F301FB132169
:10119400B1FBF0F130318DF807102649B2FBF0F3C2
:1011A40000FB1323B3FBF1F3303342F210708DF8DC
:1011B4000830B2FBF1F301FB1321B1FBF0F1303144
:1011C4008DF80910B2FBF0F34FF47A7100FB13238E
:1011D400B3FBF1F3303364208DF80A30B2FBF1F342
:1011E40001FB1321B1FBF0F130318DF80B10B2FB90
:1011F400F0F30A2100FB1323B3FBF1F330338DF832
:101204000C30B2FBF1F301FB132230328DF80D20C8
:101214002846214601AAFFF76DFF04B070BD00BF48
:101224008917000800CA9A3B00E1F50580969800EA
:1012340040420F00A0860100044A034652F82000F1
:10124400034A32F813100122FFF7ACB91C00002046
:1012540094170008044A034652F82000034A32F85F
:1012640013100022FFF79EB91C00002094170008F9
:10127400044A034652F82000034A32F81310FFF7D9
:1012840096B900BF1C0000209417000808B502207E
:10129400FFF7D2FFFEE7000000B593B0FFF712F8A6
:1012A4000023089309930B934FF480030D930423B5
:1012B4000E93602301250F930226082306A80695A2
:1012C400079510930C96FFF783F908B1FFF7DEFF3B
:1012D400039004900590052101A801950296FFF75B
:1012E40005FB04460028F1D1214622462846FFF793
:1012F400E1FB204621462246FFF7DCFB2E484FF453
:10130400165343600C2343614FF400438460C4606C
:1013140004618461C361294B0360FFF773FD0446D4
:101324000028D3D1264A136B43F00103136306A9A3
:10133400244B0890244807930695FFF74FF831464D
:1013440022460620FEF7F8FF0620FFF725F8204680
:10135400FFF772FF2046FFF77DFF2846FFF76CFF7B
:101364002846FFF777FF3046FFF766FF3046FFF762
:1013740071FF0320FFF760FF0320FFF76BFF204698
:10138400FFF75AFF2046FFF765FFFFF701FE0F4BFB
:10139400302007211A68FFF7D3FEFFF78DFE0C48B3
:1013A40080210022FFF7FEF80A4903480A22642339
:1013B400FFF751FDF3E700BF600500200050004037
:1013C40000380240000021100000024018000020F4
:1013D400000802409C17000810B5012886B0044696
:1013E4002DD1184B9B68019003F00C03042B0FD1F3
:1013F400022301A821460293FFF778FA08B1FFF708
:1014040045FF0320FFF726FF2046FFF715FF0CE0FA
:101414000290214601A8FFF769FA0028EFD10320C2
:10142400FFF70AFF2046FFF715FFFFF7B1FD064B54
:10143400302007211A68FFF783FEFFF73DFE06B050
:1014440010BD00BF003802401800002070470000A3
:10145400144B15481A6C42F48012F0B51A641A6BD6
:1014640042F008021A631A6B87B042F0040206AC19
:101474001A63042344F8143D082701260325214652
:10148400029703960495FEF7A9FF4FF4805307488B
:1014940002972146039604950193FEF79FFF07B038
:1014A400F0BD00BF00380240000C024000080240BA
:1014B4007047FEE7FEE7FEE7FEE7704770477047B8
:1014C40008B5FEF719FFFEF71FFF4FF47A73B0FB60
:1014D400F3F202FB130018B9BDE80840FFF7C8BED9
:1014E40008BD0120FFF768B80000000001020304F2
:1014F40001020304060708090000000000000000C0
:1015040000000000000000000000000000000000D7
:1015140000000000000000000000000000000000C7
:1015240000000000000000000000000000000000B7
:1015340000000000000000000000000000000000A7
:101544000000000000000000000000000000000097
:101554000000000000000000000000000000000087
:101564000000000000000000000000000000000077
:101574000000000000000000000000000000000067
:101584000000000000000000000000000000000057
:101594000000000000000000000000000000065FE2
:1015A40006000703000703247E247E2400242B6AFC
:1015B4001263130864633649562050000007030081
:1015C40000003E41000000413E00083E1C3E080869
:1015D400083E08080000E060000808080808000049
:1015E40060600020100804023E615D433E00040276
:1015F4007F00625149494622414949361814127FF5
:101604001027454545393E494949320361110907C7
:101614003649494936264949493E00006C6C000068
:10162400006CEC00000814224124242424240041EA
:101634002214080201B109063E415D551E7C1211B7
:10164400127C7F494949363E414141227F41414113
:101654003E7F494941637F090901033E4149493AB3
:101664007F0808087F00417F4100234141413F7FBB
:10167400081422417F404040407F020C027F7F02D9
:1016840004087F3E4141413E7F090909063E41610C
:1016940041BE7F09090976264949493203017F0180
:1016A400033F4040403F07384038077F2018207FE1
:1016B4006314081463030478040373494545630001
:1016C4007F41410002040810200041417F000402D0
:1016D40001020440404040400000020300205454F2
:1016E40054787F4844443800384444443844444897
:1016F4007F385454540800087E090918A4A4A47C13
:10170400007F04047800007D4000004080847D0058
:101714007F10284400007F40007C04180478007C7B
:101724000404783844444438FC4444443838444439
:1017340044FC4478444408085454542000043E446F
:1017440024003C40207C1C2040201C3C6030603C39
:10175400006C10106C009CA0603C006454544C005D
:10176400083E414100007F00000041413E08000066
:10177400000000000804080420303030002030301D
:1017840030303000203030303030303030303000C5
:1017940000100020004000807373737364646464F9
:0217A4007300D0
:1017A80030000020000000000000000000000000E1
:1017B80001020304060708090024F400000C024093
:0C17C800000C0240000C0240000C02402B
:040000050800018965
:00000001FF
